:107800000C94403C0C945D3C0C945D3C0C945D3CB1
:107810000C945D3C0C945D3C0C945D3C0C945D3C84
:107820000C945D3C0C945D3C0C945D3C0C945D3C74
:107830000C945D3C0C945D3C0C945D3C0C945D3C64
:107840000C945D3C0C945D3C0C945D3C0C945D3C54
:107850000C945D3C0C945D3C0C945D3C0C945D3C44
:107860000C945D3C0C945D3C0D0A7777772E65692E
:10787000742E73652F6861626C2F312E390D0A00EA
:1078800011241FBECFEFD8E0DEBFCDBF11E0A0E0D6
:10789000B1E0EEE2FCE702C005900D92A230B10724
:1078A000D9F722E0A2E0B1E001C01D92AE30B207EC
:1078B000E1F70E94A13D0C94153E0C94003C1092FF
:1078C000C50087E68093C40088E18093C1008EE004
:1078D0008093C200589A08959091C00095FD02C00F
:1078E000A895FACF8093C60008958091C00087FDC7
:1078F00004C0A8958FEF9FEF08958091C60090E097
:107900000895CF93DF93FC018491EF0121968823A2
:1079100021F00E946C3CFE01F7CFDF91CF910895DA
:10792000CF92DF92EF92FF9280E4C82E82E4D82EAD
:107930008FE0E82EF12C0E94753C97FF08C081E093
:10794000C81AD108E108F108B1F78FEF9FEFFF9057
:10795000EF90DF90CF900895A0E0B0E0E2EBFCE381
:107960000C94E83D0E94903C019721F083E40E9432
:107970006C3CF8CF03E011E1FF24F39485E0E82E9E
:10798000C0900001D12C0E94903C9927C816D906BE
:1079900009F0BAC00E94903C809590910001891333
:1079A000B3C010920901109208010E94903C90937C
:1079B0000D0280930C0297FDA7C020910801309121
:1079C0000901F901E457FE4F8083C90101969093A4
:1079D0000901809308018038910539F70E94903C95
:1079E000D82F80E0C82F0E94903CBC016C0F7D1FF7
:1079F000ECE8F1E020E030E0B2E0EC30FB0791F0A1
:107A00008191382798E0A901440F551F37FF06C020
:107A10009A01A1E22A27A0E13A2701C09A019150D8
:107A200091F7EACF6217730709F06EC02CE831E0D6
:107A30008091040190910501FC01E65FFE4FD901A0
:107A40004D919D014083019690930501809304011F
:107A50008038910508F448C0409106015091070113
:107A60004138B7E75B0708F059C0FA0100935700A7
:107A7000E89507B606FE04C010935700E895F9CFC5
:107A8000AAE0B1E080E090E0FC01E40FF51F80384F
:107A9000910599F0EF77FF2711966C91119770E09F
:107AA000762F6627DC906D0D711D0B01F09257004B
:107AB000E895112402961296E7CFF0930701E09320
:107AC000060190938B0180938A013197E0925700D1
:107AD000E89507B606FE04C010935700E895F9CF65
:107AE0001092050110920401F2E02C303F0709F0DA
:107AF0009FCF86E014C00497D1F00E94903C97FF7E
:107B0000FCCF85E10E946C3C0E94903C90930D025A
:107B100080930C028130910571F732CF85E10E948C
:107B20006C3C809100018F5F80930001EDCF86E077
:107B30000E946C3C80E090E0CDB7DEB7E8E00C94AA
:107B4000043ECF92DF92EF92FF92CF930E945F3C70
:107B50009FE088E10FB6F894A895809360000FBE6F
:107B60009093600088E698E70E94813CC12C8FE9E1
:107B7000D82E84E2E82EF12CC0E00E94753C8B31B7
:107B8000910511F4CF5F03C01816190654F081E077
:107B9000C81AD108E108F10881F7C53011F40E9434
:107BA000AC3CE0910201F0910301099580E090E086
:107BB000CF91FF90EF90DF90CF9008952F923F925A
:107BC0004F925F926F927F928F929F92AF92BF92ED
:107BD000CF92DF92EF92FF920F931F93CF93DF9399
:107BE000CDB7DEB7CA1BDB0B0FB6F894DEBF0FBEF6
:107BF000CDBF09942A88398848885F846E847D8443
:107C00008C849B84AA84B984C884DF80EE80FD8044
:107C10000C811B81AA81B981CE0FD11D0FB6F894BA
:0E7C2000DEBF0FBECDBFED010895F894FFCF7B
:027C2E00010053
:040000030000780081
:00000001FF
